:1000000012C024C023C022C021C020C01FC01EC0F7
:100010001DC01CC01BC01AC019C018C017C016C014
:1000200015C014C013C011241FBECFE5D4E0DEBF3D
:10003000CDBF10E0A0E6B0E0EEE6FCE002C0059027
:100040000D92A436B107D9F7ECD50FC6D9CFFC0174
:10005000892BF1F1148A158A168A178A108E118E4F
:10006000128E138E158E148E81E093E2A5E4B7E60E
:1000700080839183A283B38389E89BEAADECBFEED2
:1000800084839583A683B7838EEF9CEDAAEBB8E9B2
:1000900080879187A287B38786E794E5A2E3B0E1E2
:1000A00084879587A687B78780EF91EEA2EDB3ECA2
:1000B000808B918BA28BB38BDF01A25ABF4F1D9215
:1000C0001C92E05AFF4F1182108280E090E0089568
:1000D00081E090E008952F923F924F925F926F924D
:1000E0007F928F929F92AF92BF92CF92DF92EF92C8
:1000F000FF920F931F93CF93DF93CDB7DEB7C85610
:10010000D1400FB6F894DEBF0FBECDBFC959DE4F48
:1001100099838883C756D1409C018E010F5F1F4F82
:100120001801BC01605C7F4FA801D9015E961C914B
:100130005E975F968C9190E0A0E0B0E0DC0199279B
:1001400088276C017D01F12AF90111A1C12A10A1B2
:10015000D12ADA01CD92DD92ED92FD92AD012C5FB4
:100160003F4F6217730709F7AE014F5F5E4F910172
:10017000B9012C5F3F4FFB0184A895A8A6A8B7A89A
:10018000C0A0D1A0E2A0F3A08C249D24AE24BF2463
:10019000C084D184E284F3848C249D24AE24BF24C3
:1001A000C080D180E280F380D501C4018C259D25DB
:1001B000AE25BF256C017D01CC0CDD1CEE1CFF1CA7
:1001C000C11CD901DC96CD92DD92ED92FC92DF97B5
:1001D0004217530769F6C959DE4FA881B981C7563E
:1001E000D1408D909D90AD90BC901397C15BDE4F38
:1001F00088829982AA82BB82CF54D14014968D9076
:100200009D90AD90BC901797CD5ADE4F8882998211
:10021000AA82BB82C355D14018968D909D90AD9017
:10022000BC901B97C95ADE4F88829982AA82BB82F2
:10023000C755D1401C968D909D90AD90BC901F9756
:10024000C55ADE4F88829982AA82BB82CB55D140A3
:1002500050968D909D90AD90BC905397C15ADE4FB3
:1002600088829982AA82BB82CF55D140FE01EF5A83
:10027000FF4FCD59DE4F88829982AA82BB82C35636
:10028000D140C55ADE4F88809980AA80BB80CB556B
:10029000D140C55BDE4F88829982AA82BB82CB5453
:1002A000D140C95ADE4FA880B980CA80DB80C755CB
:1002B000D140C95BDE4FA882B982CA82DB82C754B3
:1002C000D140CD5ADE4F88809980AA80BB80C3552B
:1002D000D140C15BDE4F488159816A817B81CF5417
:1002E000D140D1014D905D906D907D901D01C95B15
:1002F000DE4F088119812A813B81C754D140C55BFB
:10030000DE4FC880D980EA80FB80CB54D1400C25D9
:100310001D252E253F25082119212A213B210C25A9
:100320001D252E253F25DB01CA01072E7BE1B69551
:10033000A795979587957A95D1F7702D6A017B01DE
:10034000689414F8CC0CDD1CEE1CFF1C1694D1F73D
:10035000C82AD92AEA2AFB2A97E6C91A96E8D90AAE
:100360009DE7E90A95EAF90AC40CD51CE61CF71CBE
:100370000C0D1D1D2E1D3F1DCD59DE4FC880D9808F
:10038000EA80FB80C356D1400C0D1D1D2E1D3F1D64
:100390007501640182E0F694E794D794C7948A9536
:1003A000D1F7240135019EE1440C551C661C771CD5
:1003B0009A95D1F74C285D286E287F284A015B0169
:1003C000C55BDE4F88819981AA81BB81CB54D14026
:1003D000CD59DE4F88839983AA83BB83C356D1400E
:1003E000E215F30509F065C2DE01AF55BF4FCF5BE3
:1003F000DE4FB983A883C154D140D1018D909D9027
:10040000AD90BD901D01CD5BDE4F88829982AA829E
:10041000BB82C354D1406A017B01C424D524E624A5
:10042000F724C95BDE4F88809980AA80BB80C754BF
:10043000D140C824D924EA24FB24D901C801EBE126
:10044000B695A79597958795EA95D1F748015901F3
:10045000F5E0880C991CAA1CBB1CFA95D1F78829D9
:100460009929AA29BB294C015D01EFE58E1AE4E127
:100470009E0AE6E2AE0AE1E9BE0A8C0C9D1CAE1CA7
:10048000BF1CCD5BDE4FC880D980EA80FB80C3549F
:10049000D1408C0C9D1CAE1CBF1CC55BDE4F8881FF
:1004A0009981AA81BB81CB54D140880D991DAA1D89
:1004B000BB1DCD5BDE4F88839983AA83BB83C35466
:1004C000D1406A017B01A2E0F694E794D794C794E7
:1004D000AA95D1F7DB01CA014EE1880F991FAA1F27
:1004E000BB1F4A95D1F78C299D29AE29BF29B90197
:1004F000A801C95BDE4F88809980AA80BB80C75461
:10050000D140C55BDE4F88829982AA82BB82CB54E0
:10051000D140CF5BDE4FA880B980C154D140A21436
:10052000B30409F0E1C1AE014F505F4FCF5BDE4F26
:1005300059834883C154D140F10181909190A19099
:10054000B1901F01CD59DE4F88829982AA82BB8269
:10055000C356D140AC01BD014429552966297729EC
:1005600040235123622373236C017D01C420D520D5
:10057000E620F7204C295D296E297F29CD5BDE4FCF
:1005800088809980AA80BB80C354D140EBE1B694A7
:10059000A79497948794EA95D1F7CD5BDE4FC880F6
:1005A000D980EA80FB80C354D140F5E0CC0CDD1C3F
:1005B000EE1CFF1CFA95D1F7C828D928EA28FB2899
:1005C000E4E2CE1AE3E4DE0AE4EEEE0AE0E7FE0A35
:1005D000CD59DE4F88809980AA80BB80C356D14018
:1005E000C80CD91CEA1CFB1C4C0D5D1D6E1D7F1D2B
:1005F000C95BDE4FA880B980CA80DB80C754D14078
:100600004A0D5B1D6C1D7D1D48015901E2E0B69449
:10061000A79497948794EA95D1F768017901FEE150
:10062000CC0CDD1CEE1CFF1CFA95D1F7C828D9288C
:10063000EA28FB28CD5BDE4F088119812A813B81A6
:10064000C354D140C95BDE4F488259826A827B82A3
:10065000C754D140CF5BDE4FE881F981C154D1400E
:10066000E215F30509F053C18E010F5B1E4FCF5BFE
:10067000DE4F19830883C154D140F10181909190DC
:10068000A190B1901F01C95BDE4F88829982AA8236
:10069000BB82C754D140CD5BDE4F088119812A81CE
:1006A0003B81C354D1400C251D252E253F254801F3
:1006B000590188269926AA26BB26CD59DE4F888265
:1006C0009982AA82BB82C356D1408A019B01EBE189
:1006D0003695279517950795EA95D1F74A015B015D
:1006E000F5E0880C991CAA1CBB1CFA95D1F7802A4E
:1006F000912AA22AB32A1AE2811A1EE3910A1DE95D
:10070000A10A15E3B10ACD59DE4F088119812A816A
:100710003B81C356D140800E911EA21EB31EC95B01
:10072000DE4F088119812A813B81C754D140080DD1
:10073000191D2A1D3B1D48015901840C951CA61C3E
:10074000B71CC95BDE4F88829982AA82BB82C754DC
:10075000D140CD5BDE4F088119812A813B81C35492
:10076000D140E2E03695279517950795EA95D1F7A0
:10077000CD5BDE4F88809980AA80BB80C354D14076
:10078000FEE1880C991CAA1CBB1CFA95D1F7802AA3
:10079000912AA22AB32ACD5BDE4F488359836A830C
:1007A0007B83C354D1402C013D01CF5BDE4F0881D8
:1007B0001981C154D1400215130509F0B5C0C15BC0
:1007C000DE4F488059806A807B80CF54D140C95B1E
:1007D000DE4F088119812A813B81C754D140400EE8
:1007E000511E621E731EC959DE4FE881F981C7563A
:1007F000D1404082518262827382CD5ADE4F08819D
:1008000019812A813B81C355D140400F511F621F7E
:10081000731F4483558366837783C95ADE4F0881EB
:1008200019812A813B81C755D140800E911EA21E9D
:10083000B31E80869186A286B386C55ADE4F888015
:100840009980AA80BB80CB55D140C80CD91CEA1C2A
:10085000FB1CC486D586E686F786C15ADE4F8880A3
:100860009980AA80BB80CF55D140880D991DAA1DC3
:10087000BB1D808B918BA28BB38B158E148EC859A8
:10088000DE4F0FB6F894DEBF0FBECDBFDF91CF9124
:100890001F910F91FF90EF90DF90CF90BF90AF909E
:1008A0009F908F907F906F905F904F903F902F9090
:1008B0000895C95BDE4FC880D980EA80FB80C754A9
:1008C000D140C55BDE4FC882D982EA82FB82CB541D
:1008D000D140C95BDE4F488259826A827B82C7540D
:1008E000D140B901A801FDCCC95BDE4F48825982D5
:1008F0006A827B82C754D1402C013D01CD5BDE4F23
:10090000088119812A813B81C354D14076CD2C01C5
:100910003D01D701C601CD5BDE4F488359836A8311
:100920007B83C354D14008CED701C6017501640151
:10093000C95BDE4F488159816A817B81C754D140B0
:100940009CCEAF92BF92CF92DF92EF92FF920F9325
:100950001F93CF93DF93EC014115510569F480E0BB
:1009600090E0DF91CF911F910F91FF90EF90DF907A
:10097000CF90BF90AF900895009709F45EC06115C5
:10098000710509F45AC0FC01E25AFF4F8081918140
:100990009E01205A3F4F7901892B31F083E090E08E
:1009A000F90191838083DDCFF901808191810097E6
:1009B000C1F68B016B01C40ED51EAA24A394B12CE1
:1009C0000C151D0561F2F70180819181892B39F6A3
:1009D0008C8D9D8D9C012F5F3F4F3D8F2C8FF8019B
:1009E00041918F018C0F9D1FFC01468F8C899D8941
:1009F000AE89BF890896A11DB11D8C8B9D8BAE8BD6
:100A0000BF8B892B8A2B8B2B91F4888D998DAA8D86
:100A1000BB8D0196A11DB11D888F998FAA8FBB8FA9
:100A2000892B8A2B8B2B19F4F701B182A0822034F9
:100A3000310531F6CE014FDBC3CF81E090E091CF9D
:100A4000CF93DF93EC018C8D9D8D9C012F5F3F4FE9
:100A5000FE01E80FF91F3D8F2C8FC8970CF440C0A2
:100A600080E8868F8C8D9D8D803491052CF1CE0190
:100A700032DB8C8D9D8D8833910544F1888D998D65
:100A80002A8D3B8DFE01EA5AFF4F30833196208339
:100A900031969083319680838C899D892E893F89F8
:100AA00031963083319620833196908331968083BE
:100AB000CE01DF91CF910FCB9C012F5F3F4F3D8F38
:100AC0002C8F8C0F9D1FFC01168ECCCF9C012F5FAD
:100AD0003F4F3D8F2C8F8C0F9D1FFC01168EC9CF71
:100AE00080E8868F8C8D9D8D883391053CF69C0126
:100AF0002F5F3F4F3D8F2C8F8C0F9D1FFC01168E5B
:100B0000F1CFCF92DF92EF92FF920F931F93CF938B
:100B1000DF93EC016B01009709F455C0672B09F4D2
:100B200052C0FC01E05AFF4F0081118101151105EF
:100B300009F03FC07C018EE5E80EF11CF7018081D1
:100B40009181892BA9F4CE017BDFFE017E96119263
:100B5000EE16FF06E1F71C8A1D8A1E8A1F8A188E70
:100B6000198E1A8E1B8E81E090E0F70191838083AD
:100B7000F60180E090E0DC01AC7FAC0FBD1F9C0172
:100B8000209530952370332743E0220F331F4A9579
:100B9000E1F74D915D916D917C9104C076956795DB
:100BA000579547952A95D2F741930196843191053F
:100BB00011F7C801DF91CF911F910F91FF90EF9036
:100BC000DF90CF90089501E010E0F3CF5D9BFECF62
:100BD0008CB90895CF93DF93CDB7DEB7C657D1094F
:100BE0000FB6F894DEBF0FBECDBFCE0101962FDA4F
:100BF00043E050E060E670E0CE010196A2DEBE0167
:100C00006D597F4FCE0101967CDF80E090E0CA589D
:100C1000DF4F0FB6F894DEBF0FBECDBFDF91CF918F
:100C20000895CF93DF9300D0CDB7DEB787E690E08D
:100C30009A83898311BA8FEF82BB1BB888E08AB987
:100C400086E880BD10BC89E189B91AE0C3DF115084
:100C5000E9F7E1E0F0E0EC0FFD1FE10FF11D80810D
:0E0C6000882399F3B3DF1F5FF4CFF894FFCF22
:040C6E00616263005C
:00000001FF
